{
  "_format": "hh-sol-artifact-1",
  "contractName": "TokenSale",
  "sourceName": "contracts/TokenSaleContract.sol",
  "abi": [
    {
      "inputs": [
        {
          "internalType": "contract DonatingIDF",
          "name": "_tokenContract",
          "type": "address"
        },
        {
          "internalType": "uint256",
          "name": "_tokenPrice",
          "type": "uint256"
        }
      ],
      "stateMutability": "nonpayable",
      "type": "constructor"
    },
    {
      "anonymous": false,
      "inputs": [
        {
          "indexed": false,
          "internalType": "address",
          "name": "_buyer",
          "type": "address"
        },
        {
          "indexed": false,
          "internalType": "uint256",
          "name": "",
          "type": "uint256"
        }
      ],
      "name": "Sell",
      "type": "event"
    },
    {
      "inputs": [
        {
          "internalType": "uint256",
          "name": "_numberOfTokens",
          "type": "uint256"
        }
      ],
      "name": "buyToken",
      "outputs": [],
      "stateMutability": "payable",
      "type": "function"
    },
    {
      "inputs": [],
      "name": "endSale",
      "outputs": [],
      "stateMutability": "nonpayable",
      "type": "function"
    },
    {
      "inputs": [],
      "name": "tokenContract",
      "outputs": [
        {
          "internalType": "contract DonatingIDF",
          "name": "",
          "type": "address"
        }
      ],
      "stateMutability": "view",
      "type": "function"
    },
    {
      "inputs": [],
      "name": "tokenPrice",
      "outputs": [
        {
          "internalType": "uint256",
          "name": "",
          "type": "uint256"
        }
      ],
      "stateMutability": "view",
      "type": "function"
    },
    {
      "inputs": [],
      "name": "tokenSold",
      "outputs": [
        {
          "internalType": "uint256",
          "name": "",
          "type": "uint256"
        }
      ],
      "stateMutability": "view",
      "type": "function"
    }
  ],
  "bytecode": "0x608060405234801561001057600080fd5b50604051610a8e380380610a8e8339818101604052810190610032919061016c565b336000806101000a81548173ffffffffffffffffffffffffffffffffffffffff021916908373ffffffffffffffffffffffffffffffffffffffff16021790555081600160006101000a81548173ffffffffffffffffffffffffffffffffffffffff021916908373ffffffffffffffffffffffffffffffffffffffff1602179055508060028190555050506101ac565b600080fd5b600073ffffffffffffffffffffffffffffffffffffffff82169050919050565b60006100f1826100c6565b9050919050565b6000610103826100e6565b9050919050565b610113816100f8565b811461011e57600080fd5b50565b6000815190506101308161010a565b92915050565b6000819050919050565b61014981610136565b811461015457600080fd5b50565b60008151905061016681610140565b92915050565b60008060408385031215610183576101826100c1565b5b600061019185828601610121565b92505060206101a285828601610157565b9150509250929050565b6108d3806101bb6000396000f3fe60806040526004361061004a5760003560e01c8063380d831b1461004f578063519ee19e1461006657806355a373d6146100915780637ff9b596146100bc578063a3ee11a6146100e7575b600080fd5b34801561005b57600080fd5b50610064610103565b005b34801561007257600080fd5b5061007b610328565b6040516100889190610579565b60405180910390f35b34801561009d57600080fd5b506100a661032e565b6040516100b39190610613565b60405180910390f35b3480156100c857600080fd5b506100d1610354565b6040516100de9190610579565b60405180910390f35b61010160048036038101906100fc919061065f565b61035a565b005b60008054906101000a900473ffffffffffffffffffffffffffffffffffffffff1673ffffffffffffffffffffffffffffffffffffffff163373ffffffffffffffffffffffffffffffffffffffff161461015b57600080fd5b600160009054906101000a900473ffffffffffffffffffffffffffffffffffffffff1673ffffffffffffffffffffffffffffffffffffffff1663a9059cbb60008054906101000a900473ffffffffffffffffffffffffffffffffffffffff16600160009054906101000a900473ffffffffffffffffffffffffffffffffffffffff1673ffffffffffffffffffffffffffffffffffffffff166370a08231306040518263ffffffff1660e01b815260040161021591906106ad565b602060405180830381865afa158015610232573d6000803e3d6000fd5b505050506040513d601f19601f8201168201806040525081019061025691906106dd565b6040518363ffffffff1660e01b815260040161027392919061070a565b6020604051808303816000875af1158015610292573d6000803e3d6000fd5b505050506040513d601f19601f820116820180604052508101906102b6919061076b565b6102bf57600080fd5b60008054906101000a900473ffffffffffffffffffffffffffffffffffffffff1673ffffffffffffffffffffffffffffffffffffffff166108fc479081150290604051600060405180830381858888f19350505050158015610325573d6000803e3d6000fd5b50565b60035481565b600160009054906101000a900473ffffffffffffffffffffffffffffffffffffffff1681565b60025481565b61036681600254610529565b341461037157600080fd5b80600160009054906101000a900473ffffffffffffffffffffffffffffffffffffffff1673ffffffffffffffffffffffffffffffffffffffff166370a08231306040518263ffffffff1660e01b81526004016103cd91906106ad565b602060405180830381865afa1580156103ea573d6000803e3d6000fd5b505050506040513d601f19601f8201168201806040525081019061040e91906106dd565b101561041957600080fd5b600160009054906101000a900473ffffffffffffffffffffffffffffffffffffffff1673ffffffffffffffffffffffffffffffffffffffff1663a9059cbb33662386f26fc100008461046b91906107c7565b6040518363ffffffff1660e01b815260040161048892919061070a565b6020604051808303816000875af11580156104a7573d6000803e3d6000fd5b505050506040513d601f19601f820116820180604052508101906104cb919061076b565b6104d457600080fd5b80600360008282546104e69190610809565b925050819055507f5e5e995ce3133561afceaa51a9a154d5db228cd7525d34df5185582c18d3df09338260405161051e92919061070a565b60405180910390a150565b60008082148061055157508282838561054291906107c7565b92508261054f919061086c565b145b61055a57600080fd5b92915050565b6000819050919050565b61057381610560565b82525050565b600060208201905061058e600083018461056a565b92915050565b600073ffffffffffffffffffffffffffffffffffffffff82169050919050565b6000819050919050565b60006105d96105d46105cf84610594565b6105b4565b610594565b9050919050565b60006105eb826105be565b9050919050565b60006105fd826105e0565b9050919050565b61060d816105f2565b82525050565b60006020820190506106286000830184610604565b92915050565b600080fd5b61063c81610560565b811461064757600080fd5b50565b60008135905061065981610633565b92915050565b6000602082840312156106755761067461062e565b5b60006106838482850161064a565b91505092915050565b600061069782610594565b9050919050565b6106a78161068c565b82525050565b60006020820190506106c2600083018461069e565b92915050565b6000815190506106d781610633565b92915050565b6000602082840312156106f3576106f261062e565b5b6000610701848285016106c8565b91505092915050565b600060408201905061071f600083018561069e565b61072c602083018461056a565b9392505050565b60008115159050919050565b61074881610733565b811461075357600080fd5b50565b6000815190506107658161073f565b92915050565b6000602082840312156107815761078061062e565b5b600061078f84828501610756565b91505092915050565b7f4e487b7100000000000000000000000000000000000000000000000000000000600052601160045260246000fd5b60006107d282610560565b91506107dd83610560565b92508282026107eb81610560565b9150828204841483151761080257610801610798565b5b5092915050565b600061081482610560565b915061081f83610560565b925082820190508082111561083757610836610798565b5b92915050565b7f4e487b7100000000000000000000000000000000000000000000000000000000600052601260045260246000fd5b600061087782610560565b915061088283610560565b9250826108925761089161083d565b5b82820490509291505056fea264697066735822122092d5abeb3fa4ed7762bab4a034af567dacc57cbb7615e1c3bec9beada159924a64736f6c63430008120033",
  "linkReferences": {},
  "deployedLinkReferences": {}
}